{
  "contractName": "AccessControlContract",
  "abi": [
    {
      "inputs": [],
      "stateMutability": "nonpayable",
      "type": "constructor"
    },
    {
      "inputs": [],
      "name": "admin",
      "outputs": [
        {
          "internalType": "address",
          "name": "",
          "type": "address"
        }
      ],
      "stateMutability": "view",
      "type": "function",
      "constant": true
    },
    {
      "inputs": [
        {
          "internalType": "address",
          "name": "",
          "type": "address"
        }
      ],
      "name": "doctors",
      "outputs": [
        {
          "internalType": "bool",
          "name": "",
          "type": "bool"
        }
      ],
      "stateMutability": "view",
      "type": "function",
      "constant": true
    },
    {
      "inputs": [
        {
          "internalType": "address",
          "name": "_doctorAddress",
          "type": "address"
        }
      ],
      "name": "addDoctor",
      "outputs": [],
      "stateMutability": "nonpayable",
      "type": "function"
    },
    {
      "inputs": [
        {
          "internalType": "address",
          "name": "_doctorAddress",
          "type": "address"
        }
      ],
      "name": "removeDoctor",
      "outputs": [],
      "stateMutability": "nonpayable",
      "type": "function"
    }
  ],
  "bytecode": "0x608060405234801561001057600080fd5b50600080546001600160a01b03191633179055610245806100326000396000f3fe608060405234801561001057600080fd5b506004361061004c5760003560e01c80634780468f1461005157806398fc90e914610066578063a9583c2214610079578063f851a440146100a2575b600080fd5b61006461005f366004610180565b6100b7565b005b610064610074366004610180565b610111565b61008c610087366004610180565b61015c565b60405161009991906101c2565b60405180910390f35b6100aa610171565b60405161009991906101ae565b6000546001600160a01b031633146100ea5760405162461bcd60e51b81526004016100e1906101cd565b60405180910390fd5b6001600160a01b03166000908152600160208190526040909120805460ff19169091179055565b6000546001600160a01b0316331461013b5760405162461bcd60e51b81526004016100e1906101cd565b6001600160a01b03166000908152600160205260409020805460ff19169055565b60016020526000908152604090205460ff1681565b6000546001600160a01b031681565b600060208284031215610191578081fd5b81356001600160a01b03811681146101a7578182fd5b9392505050565b6001600160a01b0391909116815260200190565b901515815260200190565b60208082526022908201527f4f6e6c792061646d696e2063616e20706572666f726d2074686973206163746960408201526137b760f11b60608201526080019056fea264697066735822122092123054be68fdf91c52249cba70af12f71d93542342508433ab4c3c4c3c004d64736f6c63430008000033",
  "immutableReferences": {},
  "source": "// SPDX-License-Identifier: GPL-3.0\r\npragma solidity ^0.8.0;\r\npragma experimental ABIEncoderV2;\r\ncontract AccessControlContract {\r\n    address public admin;\r\n    mapping(address => bool) public doctors;\r\n\r\n    modifier onlyAdmin() {\r\n        require(msg.sender == admin, \"Only admin can perform this action\");\r\n        _;\r\n    }\r\n\r\n    modifier onlyDoctor() {\r\n        require(doctors[msg.sender], \"Only doctors can perform this action\");\r\n        _;\r\n    }\r\n\r\n    constructor() {\r\n        admin = msg.sender;\r\n    }\r\n\r\n    function addDoctor(address _doctorAddress) public onlyAdmin {\r\n        doctors[_doctorAddress] = true;\r\n    }\r\n\r\n    function removeDoctor(address _doctorAddress) public onlyAdmin {\r\n        doctors[_doctorAddress] = false;\r\n    }\r\n}\r\n",
  "sourcePath": "K:\\blockchain\\contracts\\AccessControlContract.sol",
  "compiler": {
    "name": "solc",
    "version": "0.8.0+commit.c7dfd78e.Emscripten.clang"
  },
  "schemaVersion": "3.4.16",
  "updatedAt": "2024-02-19T14:47:03.953Z",
  "networkType": "ethereum",
  "devdoc": {
    "kind": "dev",
    "methods": {},
    "version": 1
  },
  "userdoc": {
    "kind": "user",
    "methods": {},
    "version": 1
  }
}