{
  "contractName": "AppointmentContract",
  "abi": [
    {
      "inputs": [
        {
          "internalType": "uint256",
          "name": "",
          "type": "uint256"
        }
      ],
      "name": "appointments",
      "outputs": [
        {
          "internalType": "uint256",
          "name": "appointmentId",
          "type": "uint256"
        },
        {
          "internalType": "address",
          "name": "patientAddress",
          "type": "address"
        },
        {
          "internalType": "uint256",
          "name": "appointmentDate",
          "type": "uint256"
        },
        {
          "internalType": "string",
          "name": "medicalProblem",
          "type": "string"
        }
      ],
      "stateMutability": "view",
      "type": "function",
      "constant": true
    },
    {
      "inputs": [],
      "name": "nextAppointmentId",
      "outputs": [
        {
          "internalType": "uint256",
          "name": "",
          "type": "uint256"
        }
      ],
      "stateMutability": "view",
      "type": "function",
      "constant": true
    },
    {
      "inputs": [
        {
          "internalType": "uint256",
          "name": "_appointmentDate",
          "type": "uint256"
        },
        {
          "internalType": "string",
          "name": "_medicalProblem",
          "type": "string"
        }
      ],
      "name": "bookAppointment",
      "outputs": [],
      "stateMutability": "nonpayable",
      "type": "function"
    },
    {
      "inputs": [
        {
          "internalType": "uint256",
          "name": "_appointmentId",
          "type": "uint256"
        }
      ],
      "name": "getAppointmentDetails",
      "outputs": [
        {
          "internalType": "address",
          "name": "",
          "type": "address"
        },
        {
          "internalType": "uint256",
          "name": "",
          "type": "uint256"
        },
        {
          "internalType": "string",
          "name": "",
          "type": "string"
        }
      ],
      "stateMutability": "view",
      "type": "function",
      "constant": true
    }
  ],
  "bytecode": "0x608060405234801561001057600080fd5b506105e1806100206000396000f3fe608060405234801561001057600080fd5b506004361061004c5760003560e01c806312dc901314610051578063274894d71461007d5780636e4abaae1461009f57806389dcc4a2146100b4575b600080fd5b61006461005f3660046103b3565b6100c9565b60405161007494939291906104fc565b60405180910390f35b61009061008b3660046103b3565b610186565b604051610074939291906104c3565b6100b26100ad3660046103cb565b610280565b005b6100bc610314565b60405161007491906104f3565b600060208190529081526040902080546001820154600283015460038401805493946001600160a01b039093169391929161010390610533565b80601f016020809104026020016040519081016040528092919081815260200182805461012f90610533565b801561017c5780601f106101515761010080835404028352916020019161017c565b820191906000526020600020905b81548152906001019060200180831161015f57829003601f168201915b5050505050905084565b60008181526020818152604080832081516080810183528154815260018201546001600160a01b0316938101939093526002810154918301919091526003810180548493606093859391929091838601916101e090610533565b80601f016020809104026020016040519081016040528092919081815260200182805461020c90610533565b80156102595780601f1061022e57610100808354040283529160200191610259565b820191906000526020600020905b81548152906001019060200180831161023c57829003601f168201915b50505091909252505050602081015160408201516060909201519097919650945092505050565b60408051608081018252600180548083523360208085019182528486018881526060860188815260009485528483529690932085518155915193820180546001600160a01b0319166001600160a01b039095169490941790935590516002820155925180519293926102f8926003850192019061031a565b5050600180549150600061030b8361056e565b91905055505050565b60015481565b82805461032690610533565b90600052602060002090601f016020900481019282610348576000855561038e565b82601f1061036157805160ff191683800117855561038e565b8280016001018555821561038e579182015b8281111561038e578251825591602001919060010190610373565b5061039a92915061039e565b5090565b5b8082111561039a576000815560010161039f565b6000602082840312156103c4578081fd5b5035919050565b600080604083850312156103dd578081fd5b8235915060208084013567ffffffffffffffff808211156103fc578384fd5b818601915086601f83011261040f578384fd5b81358181111561042157610421610595565b604051601f8201601f191681018501838111828210171561044457610444610595565b604052818152838201850189101561045a578586fd5b81858501868301378585838301015280955050505050509250929050565b60008151808452815b8181101561049d57602081850181015186830182015201610481565b818111156104ae5782602083870101525b50601f01601f19169290920160200192915050565b600060018060a01b0385168252836020830152606060408301526104ea6060830184610478565b95945050505050565b90815260200190565b600085825260018060a01b0385166020830152836040830152608060608301526105296080830184610478565b9695505050505050565b60028104600182168061054757607f821691505b6020821081141561056857634e487b7160e01b600052602260045260246000fd5b50919050565b600060001982141561058e57634e487b7160e01b81526011600452602481fd5b5060010190565b634e487b7160e01b600052604160045260246000fdfea26469706673582212207d7026e62a32fd85bbd1c3845cbcaac2b644b06a5d820a74f018dcc279b6e48264736f6c63430008000033",
  "immutableReferences": {},
  "source": "// SPDX-License-Identifier: GPL-3.0\r\npragma solidity ^0.8.0;\r\npragma experimental ABIEncoderV2;\r\n\r\ncontract AppointmentContract {\r\n    struct Appointment {\r\n        uint256 appointmentId;\r\n        address patientAddress;\r\n        uint256 appointmentDate;\r\n        string medicalProblem;\r\n    }\r\n\r\n    mapping(uint256 => Appointment) public appointments;\r\n    uint256 public nextAppointmentId;\r\n\r\n    function bookAppointment(uint256 _appointmentDate, string memory _medicalProblem) public {\r\n        appointments[nextAppointmentId] = Appointment(nextAppointmentId, msg.sender, _appointmentDate, _medicalProblem);\r\n        nextAppointmentId++;\r\n    }\r\n\r\n    function getAppointmentDetails(uint256 _appointmentId) public view returns (address, uint256, string memory) {\r\n        Appointment memory appointment = appointments[_appointmentId];\r\n        return (appointment.patientAddress, appointment.appointmentDate, appointment.medicalProblem);\r\n    }\r\n}\r\n",
  "sourcePath": "K:\\blockchain\\contracts\\AppointmentContract.sol",
  "compiler": {
    "name": "solc",
    "version": "0.8.0+commit.c7dfd78e.Emscripten.clang"
  },
  "schemaVersion": "3.4.16",
  "updatedAt": "2024-02-19T14:47:03.955Z",
  "networkType": "ethereum",
  "devdoc": {
    "kind": "dev",
    "methods": {},
    "version": 1
  },
  "userdoc": {
    "kind": "user",
    "methods": {},
    "version": 1
  }
}