{
  "contractName": "MedicalRecords",
  "abi": [
    {
      "anonymous": false,
      "inputs": [
        {
          "indexed": false,
          "internalType": "uint256",
          "name": "recordId",
          "type": "uint256"
        },
        {
          "indexed": false,
          "internalType": "uint256",
          "name": "timestamp",
          "type": "uint256"
        },
        {
          "indexed": false,
          "internalType": "string",
          "name": "name",
          "type": "string"
        },
        {
          "indexed": false,
          "internalType": "uint256",
          "name": "age",
          "type": "uint256"
        },
        {
          "indexed": false,
          "internalType": "string",
          "name": "gender",
          "type": "string"
        },
        {
          "indexed": false,
          "internalType": "string",
          "name": "bloodType",
          "type": "string"
        },
        {
          "indexed": false,
          "internalType": "string",
          "name": "allergies",
          "type": "string"
        },
        {
          "indexed": false,
          "internalType": "string",
          "name": "diagnosis",
          "type": "string"
        },
        {
          "indexed": false,
          "internalType": "string",
          "name": "treatment",
          "type": "string"
        }
      ],
      "name": "MedicalRecords__AddRecord",
      "type": "event"
    },
    {
      "anonymous": false,
      "inputs": [
        {
          "indexed": false,
          "internalType": "uint256",
          "name": "recordId",
          "type": "uint256"
        },
        {
          "indexed": false,
          "internalType": "uint256",
          "name": "timestamp",
          "type": "uint256"
        },
        {
          "indexed": false,
          "internalType": "string",
          "name": "name",
          "type": "string"
        },
        {
          "indexed": false,
          "internalType": "uint256",
          "name": "age",
          "type": "uint256"
        },
        {
          "indexed": false,
          "internalType": "string",
          "name": "gender",
          "type": "string"
        },
        {
          "indexed": false,
          "internalType": "string",
          "name": "bloodType",
          "type": "string"
        },
        {
          "indexed": false,
          "internalType": "string",
          "name": "allergies",
          "type": "string"
        },
        {
          "indexed": false,
          "internalType": "string",
          "name": "diagnosis",
          "type": "string"
        },
        {
          "indexed": false,
          "internalType": "string",
          "name": "treatment",
          "type": "string"
        }
      ],
      "name": "MedicalRecords__DeleteRecord",
      "type": "event"
    },
    {
      "inputs": [
        {
          "internalType": "uint256",
          "name": "",
          "type": "uint256"
        }
      ],
      "name": "isDeleted",
      "outputs": [
        {
          "internalType": "bool",
          "name": "",
          "type": "bool"
        }
      ],
      "stateMutability": "view",
      "type": "function",
      "constant": true
    },
    {
      "inputs": [],
      "name": "recordId",
      "outputs": [
        {
          "internalType": "uint256",
          "name": "",
          "type": "uint256"
        }
      ],
      "stateMutability": "view",
      "type": "function",
      "constant": true
    },
    {
      "inputs": [
        {
          "internalType": "string",
          "name": "_name",
          "type": "string"
        },
        {
          "internalType": "uint256",
          "name": "_age",
          "type": "uint256"
        },
        {
          "internalType": "string",
          "name": "_gender",
          "type": "string"
        },
        {
          "internalType": "string",
          "name": "_bloodType",
          "type": "string"
        },
        {
          "internalType": "string",
          "name": "_allergies",
          "type": "string"
        },
        {
          "internalType": "string",
          "name": "_diagnosis",
          "type": "string"
        },
        {
          "internalType": "string",
          "name": "_treatment",
          "type": "string"
        }
      ],
      "name": "addRecord",
      "outputs": [],
      "stateMutability": "nonpayable",
      "type": "function"
    },
    {
      "inputs": [
        {
          "internalType": "uint256",
          "name": "_recordId",
          "type": "uint256"
        }
      ],
      "name": "deleteRecord",
      "outputs": [],
      "stateMutability": "nonpayable",
      "type": "function"
    },
    {
      "inputs": [
        {
          "internalType": "uint256",
          "name": "_recordId",
          "type": "uint256"
        }
      ],
      "name": "getRecord",
      "outputs": [
        {
          "internalType": "uint256",
          "name": "",
          "type": "uint256"
        },
        {
          "internalType": "string",
          "name": "",
          "type": "string"
        },
        {
          "internalType": "uint256",
          "name": "",
          "type": "uint256"
        },
        {
          "internalType": "string",
          "name": "",
          "type": "string"
        },
        {
          "internalType": "string",
          "name": "",
          "type": "string"
        },
        {
          "internalType": "string",
          "name": "",
          "type": "string"
        },
        {
          "internalType": "string",
          "name": "",
          "type": "string"
        },
        {
          "internalType": "string",
          "name": "",
          "type": "string"
        }
      ],
      "stateMutability": "view",
      "type": "function",
      "constant": true
    },
    {
      "inputs": [],
      "name": "getRecordId",
      "outputs": [
        {
          "internalType": "uint256",
          "name": "",
          "type": "uint256"
        }
      ],
      "stateMutability": "view",
      "type": "function",
      "constant": true
    },
    {
      "inputs": [
        {
          "internalType": "uint256",
          "name": "_recordId",
          "type": "uint256"
        }
      ],
      "name": "getTimeStamp",
      "outputs": [
        {
          "internalType": "uint256",
          "name": "",
          "type": "uint256"
        }
      ],
      "stateMutability": "view",
      "type": "function",
      "constant": true
    },
    {
      "inputs": [
        {
          "internalType": "uint256",
          "name": "_recordId",
          "type": "uint256"
        }
      ],
      "name": "getName",
      "outputs": [
        {
          "internalType": "string",
          "name": "",
          "type": "string"
        }
      ],
      "stateMutability": "view",
      "type": "function",
      "constant": true
    },
    {
      "inputs": [
        {
          "internalType": "uint256",
          "name": "_recordId",
          "type": "uint256"
        }
      ],
      "name": "getAge",
      "outputs": [
        {
          "internalType": "uint256",
          "name": "",
          "type": "uint256"
        }
      ],
      "stateMutability": "view",
      "type": "function",
      "constant": true
    },
    {
      "inputs": [
        {
          "internalType": "uint256",
          "name": "_recordId",
          "type": "uint256"
        }
      ],
      "name": "getGender",
      "outputs": [
        {
          "internalType": "string",
          "name": "",
          "type": "string"
        }
      ],
      "stateMutability": "view",
      "type": "function",
      "constant": true
    },
    {
      "inputs": [
        {
          "internalType": "uint256",
          "name": "_recordId",
          "type": "uint256"
        }
      ],
      "name": "getBloodType",
      "outputs": [
        {
          "internalType": "string",
          "name": "",
          "type": "string"
        }
      ],
      "stateMutability": "view",
      "type": "function",
      "constant": true
    },
    {
      "inputs": [
        {
          "internalType": "uint256",
          "name": "_recordId",
          "type": "uint256"
        }
      ],
      "name": "getAllergies",
      "outputs": [
        {
          "internalType": "string",
          "name": "",
          "type": "string"
        }
      ],
      "stateMutability": "view",
      "type": "function",
      "constant": true
    },
    {
      "inputs": [
        {
          "internalType": "uint256",
          "name": "_recordId",
          "type": "uint256"
        }
      ],
      "name": "getDiagnosis",
      "outputs": [
        {
          "internalType": "string",
          "name": "",
          "type": "string"
        }
      ],
      "stateMutability": "view",
      "type": "function",
      "constant": true
    },
    {
      "inputs": [
        {
          "internalType": "uint256",
          "name": "_recordId",
          "type": "uint256"
        }
      ],
      "name": "getTreatment",
      "outputs": [
        {
          "internalType": "string",
          "name": "",
          "type": "string"
        }
      ],
      "stateMutability": "view",
      "type": "function",
      "constant": true
    },
    {
      "inputs": [
        {
          "internalType": "uint256",
          "name": "_recordId",
          "type": "uint256"
        }
      ],
      "name": "getDeleted",
      "outputs": [
        {
          "internalType": "bool",
          "name": "",
          "type": "bool"
        }
      ],
      "stateMutability": "view",
      "type": "function",
      "constant": true
    }
  ],
  "bytecode": "0x608060405234801561001057600080fd5b50610fd2806100206000396000f3fe608060405234801561001057600080fd5b50600436106100f55760003560e01c806394182c3611610097578063b810793e11610066578063b810793e14610206578063e06d2eb514610219578063f26c5f5f1461022c578063f7dfe22b1461023f576100f5565b806394182c36146101b857806397f6c84c146101d857806399055dda146101eb578063ab596946146101f3576100f5565b806333c3f9a4116100d357806333c3f9a41461015f5780636747f391146101725780636b8ff5741461018557806373c440db146101a5576100f5565b806303e9e609146100fa578063061f98111461012a5780630e37008a1461013f575b600080fd5b61010d610108366004610bf6565b610247565b604051610121989796959493929190610d5f565b60405180910390f35b61013d610138366004610bf6565b6105f2565b005b61015261014d366004610bf6565b6106b6565b6040516101219190610d56565b61013d61016d366004610afd565b6106cb565b610152610180366004610bf6565b610852565b610198610193366004610bf6565b610868565b6040516101219190610d05565b6101986101b3366004610bf6565b61090d565b6101cb6101c6366004610bf6565b61092d565b6040516101219190610cfa565b6101986101e6366004610bf6565b610942565b610152610962565b6101cb610201366004610bf6565b610968565b610198610214366004610bf6565b61097d565b610198610227366004610bf6565b61099d565b61019861023a366004610bf6565b6109bd565b6101526109dd565b60006060600060608060608060606000600160008b815260200190815260200160002090508060010154816002018260030154836004018460050185600601866007018760080186805461029a90610f24565b80601f01602080910402602001604051908101604052809291908181526020018280546102c690610f24565b80156103135780601f106102e857610100808354040283529160200191610313565b820191906000526020600020905b8154815290600101906020018083116102f657829003601f168201915b5050505050965084805461032690610f24565b80601f016020809104026020016040519081016040528092919081815260200182805461035290610f24565b801561039f5780601f106103745761010080835404028352916020019161039f565b820191906000526020600020905b81548152906001019060200180831161038257829003601f168201915b505050505094508380546103b290610f24565b80601f01602080910402602001604051908101604052809291908181526020018280546103de90610f24565b801561042b5780601f106104005761010080835404028352916020019161042b565b820191906000526020600020905b81548152906001019060200180831161040e57829003601f168201915b5050505050935082805461043e90610f24565b80601f016020809104026020016040519081016040528092919081815260200182805461046a90610f24565b80156104b75780601f1061048c576101008083540402835291602001916104b7565b820191906000526020600020905b81548152906001019060200180831161049a57829003601f168201915b505050505092508180546104ca90610f24565b80601f01602080910402602001604051908101604052809291908181526020018280546104f690610f24565b80156105435780601f1061051857610100808354040283529160200191610543565b820191906000526020600020905b81548152906001019060200180831161052657829003601f168201915b5050505050915080805461055690610f24565b80601f016020809104026020016040519081016040528092919081815260200182805461058290610f24565b80156105cf5780601f106105a4576101008083540402835291602001916105cf565b820191906000526020600020905b8154815290600101906020018083116105b257829003601f168201915b505050505090509850985098509850985098509850985050919395975091939597565b60008181526002602052604090205460ff161561062a5760405162461bcd60e51b815260040161062190610d1f565b60405180910390fd5b6000818152600160205260409081902080546003820154925191927f9f6d6d42feaf505d16bad36aa62866b87460b7e950ea40c554ef8bbfa8f0e5c692610692929142916002870191906004880190600589019060068a019060078b019060088c0190610e8d565b60405180910390a1506000908152600260205260409020805460ff19166001179055565b60009081526001602052604090206003015490565b6000805490806106da83610f5f565b91905055506040518061012001604052806000548152602001428152602001888152602001878152602001868152602001858152602001848152602001838152602001828152506001600080548152602001908152602001600020600082015181600001556020820151816001015560408201518160020190805190602001906107659291906109e3565b50606082015160038201556080820151805161078b9160048401916020909101906109e3565b5060a082015180516107a79160058401916020909101906109e3565b5060c082015180516107c39160068401916020909101906109e3565b5060e082015180516107df9160078401916020909101906109e3565b5061010082015180516107fc9160088401916020909101906109e3565b509050507f3cd872dcecf0391593d478bf560910c59955e9a59702631641bd52b78cafd5db600054428989898989898960405161084199989796959493929190610df2565b60405180910390a150505050505050565b6000908152600160208190526040909120015490565b600081815260016020526040902060020180546060919061088890610f24565b80601f01602080910402602001604051908101604052809291908181526020018280546108b490610f24565b80156109015780601f106108d657610100808354040283529160200191610901565b820191906000526020600020905b8154815290600101906020018083116108e457829003601f168201915b50505050509050919050565b600081815260016020526040902060070180546060919061088890610f24565b60026020526000908152604090205460ff1681565b600081815260016020526040902060060180546060919061088890610f24565b60005490565b60009081526002602052604090205460ff1690565b600081815260016020526040902060050180546060919061088890610f24565b600081815260016020526040902060040180546060919061088890610f24565b600081815260016020526040902060080180546060919061088890610f24565b60005481565b8280546109ef90610f24565b90600052602060002090601f016020900481019282610a115760008555610a57565b82601f10610a2a57805160ff1916838001178555610a57565b82800160010185558215610a57579182015b82811115610a57578251825591602001919060010190610a3c565b50610a63929150610a67565b5090565b5b80821115610a635760008155600101610a68565b600082601f830112610a8c578081fd5b813567ffffffffffffffff80821115610aa757610aa7610f86565b604051601f8301601f191681016020018281118282101715610acb57610acb610f86565b604052828152848301602001861015610ae2578384fd5b82602086016020830137918201602001929092529392505050565b600080600080600080600060e0888a031215610b17578283fd5b873567ffffffffffffffff80821115610b2e578485fd5b610b3a8b838c01610a7c565b985060208a0135975060408a0135915080821115610b56578485fd5b610b628b838c01610a7c565b965060608a0135915080821115610b77578485fd5b610b838b838c01610a7c565b955060808a0135915080821115610b98578485fd5b610ba48b838c01610a7c565b945060a08a0135915080821115610bb9578384fd5b610bc58b838c01610a7c565b935060c08a0135915080821115610bda578283fd5b50610be78a828b01610a7c565b91505092959891949750929550565b600060208284031215610c07578081fd5b5035919050565b60008151808452815b81811015610c3357602081850181015186830182015201610c17565b81811115610c445782602083870101525b50601f01601f19169290920160200192915050565b805460009060028104600180831680610c7357607f831692505b6020808410821415610c9357634e487b7160e01b86526022600452602486fd5b610c9d8489610d56565b828015610cb15760018114610cc257610ced565b60ff19871682528282019750610ced565b610ccb89610f18565b60005b87811015610ce757815484820152908601908401610cce565b83019850505b5050505050505092915050565b901515815260200190565b600060208252610d186020830184610c0e565b9392505050565b6020808252601d908201527f546865207265636f726420697320616c72656164792064656c65746564000000604082015260600190565b90815260200190565b60006101008a8352806020840152610d798184018b610c0e565b90508860408401528281036060840152610d938189610c0e565b90508281036080840152610da78188610c0e565b905082810360a0840152610dbb8187610c0e565b905082810360c0840152610dcf8186610c0e565b905082810360e0840152610de38185610c0e565b9b9a5050505050505050505050565b60006101208b83528a6020840152806040840152610e128184018b610c0e565b90508860608401528281036080840152610e2c8189610c0e565b905082810360a0840152610e408188610c0e565b905082810360c0840152610e548187610c0e565b905082810360e0840152610e688186610c0e565b9050828103610100840152610e7d8185610c0e565b9c9b505050505050505050505050565b60006101208b83528a6020840152806040840152610ead8184018b610c59565b90508860608401528281036080840152610ec78189610c59565b905082810360a0840152610edb8188610c59565b905082810360c0840152610eef8187610c59565b905082810360e0840152610f038186610c59565b9050828103610100840152610e7d8185610c59565b60009081526020902090565b600281046001821680610f3857607f821691505b60208210811415610f5957634e487b7160e01b600052602260045260246000fd5b50919050565b6000600019821415610f7f57634e487b7160e01b81526011600452602481fd5b5060010190565b634e487b7160e01b600052604160045260246000fdfea264697066735822122031d463018976ac6d876627ff0e0d0f0b42f62e0acd91a95d6ef2b3597573c29364736f6c63430008000033",
  "immutableReferences": {},
  "source": "//SPDX-License-Identifier:MIT\npragma solidity ^0.8.0;\n\ncontract MedicalRecords {\n    uint public recordId;\n    mapping(uint => Record) records;\n    mapping(uint => bool) public isDeleted;\n    struct Record {\n        uint recordId;\n        uint timestamp;\n        string name;\n        uint age;\n        string gender;\n        string bloodType;\n        string allergies;\n        string diagnosis;\n        string treatment;\n    }\n\n    event MedicalRecords__AddRecord(\n        uint recordId,\n        uint timestamp,\n        string name,\n        uint age,\n        string gender,\n        string bloodType,\n        string allergies,\n        string diagnosis,\n        string treatment\n    );\n    event MedicalRecords__DeleteRecord(\n        uint recordId,\n        uint timestamp,\n        string name,\n        uint age,\n        string gender,\n        string bloodType,\n        string allergies,\n        string diagnosis,\n        string treatment\n    );\n\n    function addRecord(\n        string memory _name,\n        uint _age,\n        string memory _gender,\n        string memory _bloodType,\n        string memory _allergies,\n        string memory _diagnosis,\n        string memory _treatment\n    ) public {\n        recordId++;\n        records[recordId] = Record(\n            recordId,\n            block.timestamp,\n            _name,\n            _age,\n            _gender,\n            _bloodType,\n            _allergies,\n            _diagnosis,\n            _treatment\n        );\n        emit MedicalRecords__AddRecord(\n            recordId,\n            block.timestamp,\n            _name,\n            _age,\n            _gender,\n            _bloodType,\n            _allergies,\n            _diagnosis,\n            _treatment\n        );\n    }\n\n    function deleteRecord(uint _recordId) public {\n        require(!isDeleted[_recordId], \"The record is already deleted\");\n        Record storage record = records[_recordId];\n        emit MedicalRecords__DeleteRecord(\n            record.recordId,\n            block.timestamp,\n            record.name,\n            record.age,\n            record.gender,\n            record.bloodType,\n            record.allergies,\n            record.diagnosis,\n            record.treatment\n        );\n        isDeleted[_recordId] = true;\n    }\n\n    function getRecord(\n        uint _recordId\n    )\n        public\n        view\n        returns (\n            uint,\n            string memory,\n            uint,\n            string memory,\n            string memory,\n            string memory,\n            string memory,\n            string memory\n        )\n    {\n        Record storage record = records[_recordId];\n        return (\n            record.timestamp,\n            record.name,\n            record.age,\n            record.gender,\n            record.bloodType,\n            record.allergies,\n            record.diagnosis,\n            record.treatment\n        );\n    }\n\n    function getRecordId() public view returns (uint) {\n        return recordId;\n    }\n\n    function getTimeStamp(uint _recordId) public view returns (uint) {\n        return records[_recordId].timestamp;\n    }\n\n    function getName(uint _recordId) public view returns (string memory) {\n        return records[_recordId].name;\n    }\n\n    function getAge(uint _recordId) public view returns (uint) {\n        return records[_recordId].age;\n    }\n\n    function getGender(uint _recordId) public view returns (string memory) {\n        return records[_recordId].gender;\n    }\n\n    function getBloodType(uint _recordId) public view returns (string memory) {\n        return records[_recordId].bloodType;\n    }\n\n    function getAllergies(uint _recordId) public view returns (string memory) {\n        return records[_recordId].allergies;\n    }\n\n    function getDiagnosis(uint _recordId) public view returns (string memory) {\n        return records[_recordId].diagnosis;\n    }\n\n    function getTreatment(uint _recordId) public view returns (string memory) {\n        return records[_recordId].treatment;\n    }\n\n    function getDeleted(uint256 _recordId) public view returns (bool) {\n        return isDeleted[_recordId];\n    }\n}\n",
  "sourcePath": "K:\\blockchain\\contracts\\MedicalRecords.sol",
  "compiler": {
    "name": "solc",
    "version": "0.8.0+commit.c7dfd78e.Emscripten.clang"
  },
  "schemaVersion": "3.4.16",
  "updatedAt": "2024-02-19T14:47:03.964Z",
  "networkType": "ethereum",
  "devdoc": {
    "kind": "dev",
    "methods": {},
    "version": 1
  },
  "userdoc": {
    "kind": "user",
    "methods": {},
    "version": 1
  }
}