{
  "contractName": "PatientContract",
  "abi": [
    {
      "inputs": [],
      "name": "nextPatientId",
      "outputs": [
        {
          "internalType": "uint256",
          "name": "",
          "type": "uint256"
        }
      ],
      "stateMutability": "view",
      "type": "function",
      "constant": true
    },
    {
      "inputs": [
        {
          "internalType": "address",
          "name": "",
          "type": "address"
        }
      ],
      "name": "patients",
      "outputs": [
        {
          "internalType": "uint256",
          "name": "patientId",
          "type": "uint256"
        },
        {
          "internalType": "string",
          "name": "name",
          "type": "string"
        },
        {
          "internalType": "string",
          "name": "email",
          "type": "string"
        },
        {
          "internalType": "string",
          "name": "phoneNumber",
          "type": "string"
        },
        {
          "internalType": "string",
          "name": "medicalHistory",
          "type": "string"
        }
      ],
      "stateMutability": "view",
      "type": "function",
      "constant": true
    },
    {
      "inputs": [
        {
          "internalType": "string",
          "name": "_name",
          "type": "string"
        },
        {
          "internalType": "string",
          "name": "_email",
          "type": "string"
        },
        {
          "internalType": "string",
          "name": "_phoneNumber",
          "type": "string"
        },
        {
          "internalType": "string[]",
          "name": "_allergies",
          "type": "string[]"
        },
        {
          "internalType": "string",
          "name": "_medicalHistory",
          "type": "string"
        }
      ],
      "name": "createPatient",
      "outputs": [],
      "stateMutability": "nonpayable",
      "type": "function"
    },
    {
      "inputs": [],
      "name": "getPatientDetails",
      "outputs": [
        {
          "internalType": "uint256",
          "name": "",
          "type": "uint256"
        },
        {
          "internalType": "string",
          "name": "",
          "type": "string"
        },
        {
          "internalType": "string",
          "name": "",
          "type": "string"
        },
        {
          "internalType": "string",
          "name": "",
          "type": "string"
        },
        {
          "internalType": "string[]",
          "name": "",
          "type": "string[]"
        },
        {
          "internalType": "string",
          "name": "",
          "type": "string"
        }
      ],
      "stateMutability": "view",
      "type": "function",
      "constant": true
    }
  ],
  "bytecode": "0x608060405234801561001057600080fd5b50610cee806100206000396000f3fe608060405234801561001057600080fd5b506004361061004c5760003560e01c80630869cfbc146100515780635db88d721461007e578063b113179514610093578063f2f4adae146100a8575b600080fd5b61006461005f3660046109b6565b6100c2565b604051610075959493929190610bb7565b60405180910390f35b61009161008c3660046109e4565b610311565b005b61009b6103fc565b6040516100759190610afb565b6100b0610402565b60405161007596959493929190610b04565b600060208190529081526040902080546001820180549192916100e490610c40565b80601f016020809104026020016040519081016040528092919081815260200182805461011090610c40565b801561015d5780601f106101325761010080835404028352916020019161015d565b820191906000526020600020905b81548152906001019060200180831161014057829003601f168201915b50505050509080600201805461017290610c40565b80601f016020809104026020016040519081016040528092919081815260200182805461019e90610c40565b80156101eb5780601f106101c0576101008083540402835291602001916101eb565b820191906000526020600020905b8154815290600101906020018083116101ce57829003601f168201915b50505050509080600301805461020090610c40565b80601f016020809104026020016040519081016040528092919081815260200182805461022c90610c40565b80156102795780601f1061024e57610100808354040283529160200191610279565b820191906000526020600020905b81548152906001019060200180831161025c57829003601f168201915b50505050509080600501805461028e90610c40565b80601f01602080910402602001604051908101604052809291908181526020018280546102ba90610c40565b80156103075780601f106102dc57610100808354040283529160200191610307565b820191906000526020600020905b8154815290600101906020018083116102ea57829003601f168201915b5050505050905085565b6040805160c0810182526001805482526020808301898152838501899052606084018890526080840187905260a0840186905233600090815280835294909420835181559351805193949361036d938501929190910190610782565b5060408201518051610389916002840191602090910190610782565b50606082015180516103a5916003840191602090910190610782565b50608082015180516103c1916004840191602090910190610806565b5060a082015180516103dd916005840191602090910190610782565b505060018054915060006103f083610c7b565b91905055505050505050565b60015481565b33600090815260208181526040808320815160c081019092528054825260018101805460609485948594859485948a948401919061043f90610c40565b80601f016020809104026020016040519081016040528092919081815260200182805461046b90610c40565b80156104b85780601f1061048d576101008083540402835291602001916104b8565b820191906000526020600020905b81548152906001019060200180831161049b57829003601f168201915b505050505081526020016002820180546104d190610c40565b80601f01602080910402602001604051908101604052809291908181526020018280546104fd90610c40565b801561054a5780601f1061051f5761010080835404028352916020019161054a565b820191906000526020600020905b81548152906001019060200180831161052d57829003601f168201915b5050505050815260200160038201805461056390610c40565b80601f016020809104026020016040519081016040528092919081815260200182805461058f90610c40565b80156105dc5780601f106105b1576101008083540402835291602001916105dc565b820191906000526020600020905b8154815290600101906020018083116105bf57829003601f168201915b5050505050815260200160048201805480602002602001604051908101604052809291908181526020016000905b828210156106b657838290600052602060002001805461062990610c40565b80601f016020809104026020016040519081016040528092919081815260200182805461065590610c40565b80156106a25780601f10610677576101008083540402835291602001916106a2565b820191906000526020600020905b81548152906001019060200180831161068557829003601f168201915b50505050508152602001906001019061060a565b5050505081526020016005820180546106ce90610c40565b80601f01602080910402602001604051908101604052809291908181526020018280546106fa90610c40565b80156107475780601f1061071c57610100808354040283529160200191610747565b820191906000526020600020905b81548152906001019060200180831161072a57829003601f168201915b5050509190925250508151602083015160408401516060850151608086015160a090960151939d929c50909a50985092965094509092505050565b82805461078e90610c40565b90600052602060002090601f0160209004810192826107b057600085556107f6565b82601f106107c957805160ff19168380011785556107f6565b828001600101855582156107f6579182015b828111156107f65782518255916020019190600101906107db565b5061080292915061085f565b5090565b828054828255906000526020600020908101928215610853579160200282015b828111156108535782518051610843918491602090910190610782565b5091602001919060010190610826565b50610802929150610874565b5b808211156108025760008155600101610860565b808211156108025760006108888282610891565b50600101610874565b50805461089d90610c40565b6000825580601f106108af57506108cd565b601f0160209004906000526020600020908101906108cd919061085f565b50565b600082601f8301126108e0578081fd5b8135602067ffffffffffffffff8211156108fc576108fc610ca2565b6109098182840201610c16565b82815281810190858301855b8581101561093e5761092c898684358b010161094b565b84529284019290840190600101610915565b5090979650505050505050565b600082601f83011261095b578081fd5b813567ffffffffffffffff81111561097557610975610ca2565b610988601f8201601f1916602001610c16565b81815284602083860101111561099c578283fd5b816020850160208301379081016020019190915292915050565b6000602082840312156109c7578081fd5b81356001600160a01b03811681146109dd578182fd5b9392505050565b600080600080600060a086880312156109fb578081fd5b853567ffffffffffffffff80821115610a12578283fd5b610a1e89838a0161094b565b96506020880135915080821115610a33578283fd5b610a3f89838a0161094b565b95506040880135915080821115610a54578283fd5b610a6089838a0161094b565b94506060880135915080821115610a75578283fd5b610a8189838a016108d0565b93506080880135915080821115610a96578283fd5b50610aa38882890161094b565b9150509295509295909350565b60008151808452815b81811015610ad557602081850181015186830182015201610ab9565b81811115610ae65782602083870101525b50601f01601f19169290920160200192915050565b90815260200190565b6000878252602060c081840152610b1e60c0840189610ab0565b8381036040850152610b308189610ab0565b90508381036060850152610b448188610ab0565b848103608086015286518082529091508282019083810283018401848901865b83811015610b9257601f19868403018552610b80838351610ab0565b94870194925090860190600101610b64565b505086810360a0880152610ba68189610ab0565b9d9c50505050505050505050505050565b600086825260a06020830152610bd060a0830187610ab0565b8281036040840152610be28187610ab0565b90508281036060840152610bf68186610ab0565b90508281036080840152610c0a8185610ab0565b98975050505050505050565b60405181810167ffffffffffffffff81118282101715610c3857610c38610ca2565b604052919050565b600281046001821680610c5457607f821691505b60208210811415610c7557634e487b7160e01b600052602260045260246000fd5b50919050565b6000600019821415610c9b57634e487b7160e01b81526011600452602481fd5b5060010190565b634e487b7160e01b600052604160045260246000fdfea264697066735822122074ce897e25d78645edde87d44a403abb87a0995cff828b4a2f0a42e5be4a983264736f6c63430008000033",
  "immutableReferences": {},
  "source": "// SPDX-License-Identifier: GPL-3.0\r\npragma solidity ^0.8.0;\r\npragma experimental ABIEncoderV2;\r\ncontract PatientContract {\r\n    struct Patient {\r\n        uint256 patientId;\r\n        string name;\r\n        string email;\r\n        string phoneNumber;\r\n        string[] allergies;\r\n        string medicalHistory;\r\n    }\r\n\r\n    mapping(address => Patient) public patients;\r\n    uint256 public nextPatientId;\r\n\r\n    function createPatient(string memory _name, string memory _email, string memory _phoneNumber, string[] memory _allergies, string memory _medicalHistory) public {\r\n        patients[msg.sender] = Patient(nextPatientId, _name, _email, _phoneNumber, _allergies, _medicalHistory);\r\n        nextPatientId++;\r\n    }\r\n\r\n    function getPatientDetails() public view returns (uint256, string memory, string memory, string memory, string[] memory, string memory) {\r\n        Patient memory patient = patients[msg.sender];\r\n        return (patient.patientId, patient.name, patient.email, patient.phoneNumber, patient.allergies, patient.medicalHistory);\r\n    }\r\n}\r\n",
  "sourcePath": "K:\\blockchain\\contracts\\PatientContract.sol",
  "compiler": {
    "name": "solc",
    "version": "0.8.0+commit.c7dfd78e.Emscripten.clang"
  },
  "schemaVersion": "3.4.16",
  "updatedAt": "2024-02-19T14:47:03.959Z",
  "networkType": "ethereum",
  "devdoc": {
    "kind": "dev",
    "methods": {},
    "version": 1
  },
  "userdoc": {
    "kind": "user",
    "methods": {},
    "version": 1
  }
}